:100000000C945F080C947B1B0C94541B0C94870875
:100010000C9487080C9487080C9487080C94870824
:100020000C9487080C9487080C9487080C94870814
:100030000C9487080C9487080C9487080C94870804
:100040000C940A1B0C9487080C94C81B0C94A21BDC
:100050000C9487080C9487080C9487080C948708E4
:100060000C94FA1B0C94870807634236B79BD8A7F9
:100070001A39685618AEBAAB558C1D3CB7CC5763CD
:10008000BD6DEDFD753EF6177231BF000000803F7B
:1000900008000000BE922449123EABAAAA2ABECD97
:1000A000CCCC4C3E00000080BEABAAAAAA3E000009
:1000B0000000BF000000803F000000000008417801
:1000C000D3BB4387D1133D190E3CC3BD4282AD2B38
:1000D0003E68EC8276BED98FE1A93E4C80EFFFBE30
:1000E00001C4FF7F3F000000000000000000003E50
:1000F0005B4F5B3E3E6B4F6B3E1C3E7C3E1C183C98
:100100007E3C181C577D571C1C5E7F5E1C00183CF3
:100110001800FFE7C3E7FF0018241800FFE7DBE73C
:10012000FF30483A060E2629792926407F05050723
:10013000407F05253F5A3CE73C5A7F3E1C1C08087F
:100140001C1C3E7F14227F22145F5F005F5F060944
:100150007F017F006689956A606060606094A2FF9D
:10016000A29408047E040810207E201008082A1C8F
:1001700008081C2A08081E101010100C1E0C1E0C5B
:1001800030383E3830060E3E0E06000000000000FB
:10019000005F00000007000700147F147F14242A6A
:1001A0007F2A12231308646236495620500008073C
:1001B0000300001C2241000041221C002A1C7F1C5D
:1001C0002A08083E0808008070300008080808085F
:1001D000000060600020100804023E5149453E00C6
:1001E000427F400072494949462141494D33181424
:1001F000127F1027454545393C4A49493141211173
:1002000009073649494936464949291E0000140064
:100210000000403400000008142241141414141487
:10022000004122140802015909063E415D594E7CE5
:100230001211127C7F494949363E414141227F419A
:1002400041413E7F494949417F090909013E4141F8
:1002500051737F0808087F00417F41002040413FE3
:10026000017F081422417F404040407F021C027FF2
:100270007F0408107F3E4141413E7F090909063E47
:100280004151215E7F091929462649494932030116
:100290007F01033F4040403F1F2040201F3F403828
:1002A000403F631408146303047804036159494D03
:1002B00043007F4141410204081020004141417F39
:1002C00004020102044040404040000307080020AF
:1002D000545478407F2844443838444444283844AF
:1002E00044287F385454541800087E090218A4A4E6
:1002F0009C787F0804047800447D40002040403D05
:10030000007F1028440000417F40007C047804787E
:100310007C080404783844444438FC182424181811
:10032000242418FC7C08040408485454542404046D
:100330003F44243C4040207C1C2040201C3C40305A
:10034000403C44281028444C9090907C4464544C89
:1003500044000836410000007700000041360800E4
:1003600002010204023C2623263C1EA1A161123A8E
:100370004040207A385454555921555579412254DA
:10038000547842215554784020545579400C1E52DF
:100390007212395555555939545454593955545484
:1003A000580000457C410002457D420001457C40EB
:1003B0007D1211127DF0282528F07C54554500202F
:1003C00054547C547C0A097F4932494949323A44A1
:1003D00044443A324A4848303A4141217A3A42400C
:1003E0002078009DA0A07D3D4242423D3D404040DE
:1003F0003D3C24FF2424487E4943662B2FFC2F2BB1
:10040000FF0929F620C0887E090320545479410051
:1004100000447D413048484A32384040227A007AD0
:100420000A0A727D0D19317D2629292F28262929AE
:10043000292630484D4020380808080808080808D0
:10044000382F10C8ACBA2F102834FA00007B0000F7
:1004500008142A142222142A14085500550055AAFB
:1004600055AA55AAFF55FF55FF000000FF001010C8
:1004700010FF00141414FF001010FF00FF1010F004
:1004800010F0141414FC001414F700FF0000FF0017
:10049000FF1414F404FC141417101F10101F101F65
:1004A0001414141F00101010F0000000001F101092
:1004B00010101F10101010F010000000FF1010108E
:1004C000101010101010FF10000000FF140000FFAB
:1004D00000FF00001F10170000FC04F41414171094
:1004E000171414F404F40000FF00F7141414141487
:1004F0001414F700F7141414171410101F101F14FD
:100500001414F4141010F010F000001F101F00005D
:10051000001F14000000FC140000F010F01010FF89
:1005200010FF141414FF141010101F00000000F02E
:1005300010FFFFFFFFFFF0F0F0F0F0FFFFFF000003
:10054000000000FFFF0F0F0F0F0F3844443844FC2A
:100550004A4A4A347E02020606027E027E02635541
:100560004941633844443C04407E201E2006027EFC
:10057000020299A5E7A5991C2A492A1C4C7201720E
:100580004C304A4D4D303048784830BC625A463D78
:100590003E494949007E0101017E2A2A2A2A2A442D
:1005A000445F444440514A444040444A5140000062
:1005B000FF0103E080FF000008086B6B083612366D
:1005C0002436060F090F060000181800000010104E
:1005D000003040FF0101001F01011E00191D17120C
:1005E000003C3C3C3C0000000000000060000000BB
:1005F0000000000000000000000000E0000000001B
:1006000000000000000000000001E0000000000009
:10061000000000000000000001F0000000000000E9
:100620000000000000000003F000000000000000D7
:1006300000000000000007F00000000000000000C3
:10064000000000000007F8000000000000000000AB
:10065000000000000FF800000003C0007E00000151
:10066000E0007F0FF800000003C000FE000001E082
:1006700000FFEFF800000003C000FE000001E000F2
:10068000FFFFF800000003C000F00000000F007F33
:10069000FE7FC0000003C000F00000000F003FFE1E
:1006A0007FF83FF1FBCFFCFEF3BC3DEFE01FFE7F88
:1006B000FF7FFBFFDFFEFEFFBC3DEFE01FC6FFFF3D
:1006C0007FFBFFDFFEFEFFBC3DEFE00FE3C7FE78E0
:1006D0007BC3DE1EF0FFBC3DEF0007FF87FC787B8D
:1006E000C3DE1EF0F83C3DEF0001FFFFF0007BC3CE
:1006F000C01EF0F03C3DEF0001F37FE03FFBC3CFB5
:10070000FEF0F03C3DEF0003E33F807FFBC3DFFEE4
:10071000F0F03C3DEF0007E73C00787BC3DE1EF0C5
:10072000F03C3DEF0007FFBE00787BC3DE1EF0F01B
:100730003C3DEF0007FFFE00787BC3DE1EF0F03C7F
:100740003DEF000FFFFE007FFBFFDFFEF0F03FFDFF
:10075000EFE00FFFFF007FFBFFDFFEF0F03FFDEF5C
:10076000E00FF9FF003E79F9CF9EF0F01F3DE7E082
:100770001FF1FF0000000000000000000000001F4B
:1007800080FF007FFFFFFFFFFFFFFFFFFFE01C0078
:100790007F007FFFFFFFFEB46D888D18E000001F13
:1007A000007FFFFFFFFE95AD7DB577E000000F00F5
:1007B0007FFFFFFFFEA5AD9D8D19E0000006007FC5
:1007C000FFFFFFFEB5ADEDB57EE0FFFFFFFFFFFFD2
:1007D000FFFFFFFFFFFFFFFFFFFFFFFFFFFFFFFF29
:1007E000FFFFFFFFFFFFFFFFFFFFFFFFFFFFFFFF19
:1007F000FFFFFFFFFFFFFFFFFFFFFFFFFFFFFFFF09
:10080000FFFFFFFFFFFFFFFFFFFFFFFFFFFFFFFFF8
:10081000FFFFFFFFFFFFFFFFFFFFFFFFFFFFFFFFE8
:10082000FFFFFFFFFFFFFFFFFFFFFFFFFFFFFFFFD8
:10083000FFFFFFFFFFFFFFFFFFFFFFFFFFFFFFFFC8
:10084000FFFFFFFFFFFFFFFFFFFFFFFFFFFFFFFFB8
:10085000FFFFFFFFFFFFFFFFFFFFFFFFFFFFFFFFA8
:10086000FFFFFFFFFFFFFFFFFFFFFFFFFFFFFFFF98
:10087000FFFFFFFFFFFFFFFFFFFFFFFFFFFFFFFF88
:10088000FFFFFFFFFFFFFFFFFFFFFFFFFFFFFFFF78
:10089000FFFFFFFFFFFFFFFFFFFFFFFFFFFFFFFF68
:1008A000FFFFFFFFFFFFFFFFFFFFFFFFFFFFFFFF58
:1008B000FFFFFFFFFFFFFFFFFFFFFFFFFFFFFFFF48
:1008C000FFFFFFFFFFFFFFFFFFFFFFFFFFFFFFFF38
:1008D000FFFFFFFFFFFFFFFFFFFFFFFFFFFFFFFF28
:1008E000FFFFFFFFFFFFFFFFFFFFFFFFFFFFFFFF18
:1008F000FFFFFFFFFFFFFFFFFFFFF00000003FFFD4
:10090000FFFFFFFFFFFFFFFFFFFFF00000001FFFE3
:10091000FFFFFFFFFFFFFFFFFFFFF00000001FFFD3
:10092000FFFFFFFFFFFFFFFFFFFFF00000001FFFC3
:10093000FFFFFFFFFFFFFFFFFFFFF00000001FFFB3
:10094000FFFFFFFFFFFFFFFFFFFFF000C0001FFFE3
:10095000FFFFFFFFFFFFFFFFFFFFF001B0001FFFE2
:10096000FFFFFFFFFFFFFFFFFFFFF0011FC01FFFA3
:10097000FFFFFFFFFFFFFFFFFFFFF00186401FFFAC
:10098000FFFFFFFFFFFFFFFFFFFFF003C4001FC6D5
:100990007218104183FDFC7CE083F00C6CC01F9E3C
:1009A000720E31C081F9F97CE38FF0147C401F9EF8
:1009B000764E73CC99F8F9F8E79FF0107C401F9EB3
:1009C000765E71CC99F6F8F8638FF01FEFE01FCEDA
:1009D000761E704983F57C786083F00EFE101FE66A
:1009E000760E71C383E97E7A638FF0047C101FF268
:1009F000764E73C383E9BF32679FF0046C601FF2C9
:100A0000664E73C993D3BF30679FF00246C01FB3D1
:100A1000060E704999D49B302783F000C3801F874E
:100A2000061E704C998018332783F005C2001FCF33
:100A3000FFFFFFFFDD801CFFFFFFF00332001FFF01
:100A4000FFFFFFFFFFFFFFFFFFFFF0001E001FFF84
:100A5000FFFFFFFFFFFFFFFFFFFFF00000001FFF92
:100A6000FFFFFFFFFFFFFFFFFFFFF00000001FFF82
:100A7000FFFFFFFFFFFFFFFFFFFFF00000001FFF72
:100A8000FFFFFFFFFFFFFFFFFFFFF00000001FFF62
:100A9000FFFFFFFFFFFFFFFFFFFFF00000003FFF32
:100AA000FFFFFFFFFFFFFFFFFFFFF80000007FFFDA
:100AB000FFFFFFFFFFFFFFFFFFFFFFFFFFFFFFFF46
:100AC000FFFFFFFFFFFFFFFFFFFFFFFFFFFFFFFF36
:100AD000FFFFFFFFFFFFFFFFFFFFFFFFFFFFFFFF26
:100AE000FFFFFFFFFFFFFFFFFFFFFFFFFFFFFFFF16
:100AF000FFFFFFFFFFFFFFFFFFFFFFFFFFFFFFFF06
:100B0000FFFFFFFFFFFFFFFFFFFFFFFFFFFFFFFFF5
:100B1000FFFFFFFFFFFFFFFFFFFFFFFFFFFFFFFFE5
:100B2000FFFFFFFFFFFFFFFFFFFFFFFFFFFFFFFFD5
:100B3000FFFFFFFFFFFFFFFFFFFFFFFFFFFFFFFFC5
:100B4000FFFFFFFFFFFFFFFFFFFFFFFFFFFFFFFFB5
:100B5000FFFFFFFFFFFFFFFFFFFFFFFFFFFFFFFFA5
:100B6000FFFFFFFFFFFFFFFFFFFFFFFFFFFFFFFF95
:100B7000FFFFFFFFFFFFFFFFFFFFFFFFFFFFFFFF85
:100B8000FFFFFFFFFFFFFFFFFFFFFFFFFFFFFFFF75
:100B9000FFFFFFFFFFFFFFFFFFFFFFFFFFFFFFFF65
:100BA000FFFFFFFFFFFFFFFFFFFFFFFFFFFFFFFF55
:100BB000FFFFFFFFFFFFFFFFFFFFFFFFFFFFFFFF45
:100BC000FFFFFFFFFFFFFFFFFFFFFFFFFFFFFFFF35
:100BD000FFFFFFFFFFFFFFFFFFFFFFFFFFFFFFFF25
:100BE000FFFFFFFFFFFFFFFFFFFFFFFFFFFFFFFF15
:100BF000FFFFFFFFFFFFFFFFFFFFFFFFFFFFFFFF05
:100C0000FFFFFFFFFFFFFFFFFFFFFFFFFFFFFFFFF4
:100C1000FFFFFFFFFFFFFFFFFFFFFFFFFFFFFFFFE4
:100C2000FFFFFFFFFFFFFFFFFFFFFFFFFFFFFFFFD4
:100C3000FFFFFFFFFFFFFFFFFFFFFFFFFFFFFFFFC4
:100C4000FF8001FFFFFFFFFFFFFFFFFFFFFFFFFF31
:100C5000FC03C03FFFFFFFFFFFFFFFFFFFFFFFFFA2
:100C6000F07FFE0FFFFFFFFFFFFFFFFFFFFFFFFF14
:100C7000C3FFFFC3FFFFFFFFFFFFFFFFFFFFFFFFFC
:100C80008FFFFFF1FFFFFFFFFFFFFFFFFFFFFFFFF2
:100C90001FFFFFF87FFFFFFFFFFFFFFFFFFFFFFCCE
:100CA0007FFFFFFE3FFFFFFFFFFFFFFFFFFFFFFC98
:100CB000FFFFFFFF1FFFFFFFFFFFFFFFFFFFFFF92A
:100CC000FFFFFFFF8FFFFFFFFFFFFFFFFFFFFFF3B0
:100CD000FFFFFFFFC7FFFFFFFFFFFFFFFFFFFFE774
:100CE000FFFFFFFFE7FFFFFFFFFFFFFFFFFFFFC764
:100CF000FBFFFFFFF3FFFFFFFFFFFFFFFFFFFFCF44
:100D0000FBFFF0FFF1FFFFFFFFFFFFFFFFFFFF9F74
:100D1000F9FFFEFFF9FFFFFFFFFFFFFFFFFFFF9F50
:100D2000C07FFFFFF9FFFFFFFFFFFFFFFFFFFF3F58
:100D3000C07FE00FFCFFFFFFFFFFFFFFFFFFFF3F54
:100D4000F9FF8003FCFFFFFFFFFFFFFFFFFFFF3FF7
:100D5000F9FF0001FE7FFFFFFFFFFFFFFFFFFE7FA8
:100D6000F9FE0003FE7FFFFFFFFFFFFFFFFFFE7F97
:100D7000F9FC0103FE7FFFFFFFFFFFFFFFFFFE7F88
:100D8000F9F80187FE7FFFFFFFFFFFFFFFFFFE7FF8
:100D9000FFF00107FF3FFFFFFFFFFFFFFFFFFE7FA9
:100DA000FFF00107FF3FFFFFFFFFFFFFFFFFFE7F99
:100DB000FFF00107FF3FFFFFFFFFFFFFFFFFFCFF0B
:100DC000FFF00107FF3FFFFFFFFFFFFFFFFFFCFFFB
:100DD000FFF00107FF3FFFFFFFFFFFFFFFFFFE7F69
:100DE000FFF30107FF3FFFFFFFFFFFFFFFFFFE7F56
:100DF000FFFFE187FF3FFFFFFFFFFFFFFFFFFE7FDA
:100E0000FFFC3987FF3FFFFFFFFFFFFFFFFFFE7F74
:100E1000FFF60FE7FE7FFFFFFFFFFFFFFFFFFE7FF5
:100E2000FFF607F3FE7FFFFFFFFFFFFFFFFFFE7FE1
:100E3000FFF201FBFE7FFFFFFFFFFFFFFFFFFF2031
:100E40000FF2007F7C7FFFFFFFFFFFFFFFFFFF0030
:100E500040F9001C7CFFFFFFFFFFFFFFFFFFFF1CAF
:100E60007838000078FFFFFFFFFFFFFFFFFFFF9FC5
:100E70001F080000E0FFFFFFFFFFFFFFFFFFFF9FD6
:100E8000CFC0000081FFFFFFFFFFFFFFFFFFFFCF8D
:100E9000E7E3000011FFFFFFFFFFFFFFFFFFFFC7BA
:100EA000F3F9F001F3FFFFFFFFFFFFFFFFFFFFE795
:100EB000F9FC7FFFE7FFFFFFFFFFFFFFFFFFFFF3EF
:100EC000FC7F1FFFC7FFFFFFFFFFFFFFFFFFFFF1DB
:100ED000FE3FC3FF8FFFFFFFFFFFFFFFFFFFFFF896
:100EE000FF9FF07E1FFFFFFFFFFFFFFFFFFFFFFCE5
:100EF0003FCFFE003FFFFFFFFFFFFFFFFFFFFFFEB3
:100F00001FE3FFF07FFFFFFFFFFFFFFFFFFFFFFF7C
:100F100087F0FFF0FFFFFFFFFFFFFFFFFFFFFFFF77
:100F2000C1FC3FC3FFFFFFFFFFFFFFFFFFFFFFFF0E
:100F3000F07F0007FFFFFFFFFFFFFFFFFFFFFFFF47
:100F4000FC01003FFFFFFFFFFFFFFFFFFFFFFFFF71
:100F5000FF0000FFFFFFFFFFFFFFFFFFFFFFFFFF9F
:100F6000FFF81FFFFFFFFFFFFFFFFFFFFFFFFFFF78
:100F7000FFFFFFFFFFFFFFFFFFFFFFFFFFFFFFFF81
:100F8000FFFFFFFFFFFFFFFFFFFFFFFFFFFFFFFF71
:100F9000FFFFFFFFFFFFFFFFFFFFFFFFFFFFFFFF61
:100FA000FFFFFFFFFFFFFFFFFFFFFFFFFFFFFFFF51
:100FB000FFFFFFFFFFFFFFFFFFFFFFFFFFFFFFFF41
:100FC000FFFFFFFFFFFFFFFFFFFF00000000230008
:100FD00026002900204C4953544F00204C495354BB
:100FE0004F0043616C656E74616E646F2073656E53
:100FF000736F726573004E4F32202870706D290A2E
:1010000000434F202870706D290A002025002520FC
:101010004F320A0000000000240027002A000000D0
:1010200000080002010000030407000000000000A7
:101030000000010204081020408001020408102072
:1010400001020408102000000000250028002B00E9
:10105000040404040404040402020202020203035E
:10106000030303034D45444952004D454449520092
:1010700050756C736520656C20626F746F6E2070A4
:101080006172613A200A002070706D00414C455237
:101090005441204E4F32210A002070706D00414CA7
:1010A0004552544120434F210A00202500414C4520
:1010B000525441204F32210A0000631D7424112430
:1010C0001FBECFEFD8E0DEBFCDBF11E0A0E0B1E0A2
:1010D000E6E4F5E502C005900D92AC3BB107D9F707
:1010E00023E0ACEBB1E001C01D92AA39B207E1F7F1
:1010F00018E0CEE5D8E004C02197FE010E945F29E8
:10110000CD35D107C9F70E94FB1D0C94962A0C948B
:101110000000FC0120812EBD0DB407FEFDCF2EB5D1
:10112000FC01208308950895833081F028F48130F4
:1011300099F08230A9F008958730A9F08830C9F07D
:101140008430B1F4809180008F7D03C08091800055
:101150008F7780938000089584B58F7784BD08953C
:1011600084B58F7DFBCF8091B0008F778093B000E6
:1011700008958091B0008F7DF9CF1F93CF93DF93B7
:10118000282F30E0F901E25EFF4E8491F901EE5C18
:10119000FF4ED491F901E05BFF4EC491CC23A9F03E
:1011A000162F81110E949408EC2FF0E0EE0FFF1F24
:1011B000EA5BFF4EA591B4918FB7F894EC911111B1
:1011C00008C0D095DE23DC938FBFDF91CF911F91B4
:1011D0000895DE2BF8CFCF93DF9390E0FC01EE5C17
:1011E000FF4E2491805B9F4EFC0184918823D1F0B7
:1011F00090E0880F991FFC01EC5EFF4EA591B49121
:10120000FC01EA5BFF4EC591D49161110EC09FB7FE
:10121000F8948C91E22FE0958E238C932881E22321
:10122000E8839FBFDF91CF9108958FB7F894EC9139
:10123000E22BEC938FBFF6CF8E3008F08E50877084
:10124000806480937C0080917A00806480937A002F
:1012500080917A0086FDFCCF809178009091790092
:1012600008958230910538F0880F991F880F991FD3
:1012700005970197F1F708959F92AF92BF92CF9291
:10128000DF92EF92FF920F931F93CF93DF93EC01C6
:101290006B018885998511E0892B09F010E8F6012A
:1012A000A0808A2D8123992493948111912C2C81E3
:1012B0003D814E815F8160E271EA87E090E00E94AB
:1012C0006D25022FB12CE22EF12C002319F0C7015D
:1012D0000E9431098A85877F09F04FC08D858F3F35
:1012E00089F09A2D912381E009F480E0891551F06D
:1012F000EF85F8898F899923D1F19081892B80839B
:1013000099249394E989FA898081998D892B808326
:10131000002319F0C7010E9431098E858F3F39F0F3
:10132000EB89FC898081988D892309F0B12AE989AC
:10133000FA899081898D8095892380838E858F3F5E
:1013400011F0F601B08288859985892B09F044C097
:10135000110F1111BACFDF91CF911F910F91FF9013
:10136000EF90DF90CF90BF90AF909F9008959081C5
:10137000809589238083912CC5CFE989FA89808162
:10138000998D892B8083002319F0C7010E943109B0
:101390008D858F3F49F0EF85F8898F899A2D9123AC
:1013A000B9F09081892B8083E989FA899081898DB0
:1013B0008095892380838E858F3F09F4BFCFEB8989
:1013C000FC898081988D892309F4B8CFB12AB6CFE2
:1013D000908180958923E7CF1695BBCFAF92BF92BE
:1013E000CF92DF92EF92FF920F931F93CF93DF93F1
:1013F0001F92CDB7DEB78C015B016A01DC018D91D4
:101400009C911197892B39F01296ED91FC91908166
:1014100081819CBD8DBDF80183858F3F19F060E00F
:101420000E94BD087501CA0CDB1CCE14DF04A9F0B4
:10143000D7018D917D018983F80180819181892B6C
:1014400029F0CE0101960E948908EFCFBE016F5F9F
:101450007F4FC8010E943C09E8CFD8011B968C91B0
:101460008F3F19F061E00E94BD0881E00F90DF918D
:10147000CF911F910F91FF90EF90DF90CF90BF9091
:10148000AF9008953FB7F89480912D0290912E026D
:10149000A0912F02B091300226B5A89B05C02F3F26
:1014A00019F00196A11DB11D3FBFBA2FA92F982F8A
:1014B0008827BC01CD01620F711D811D911D42E085
:1014C000660F771F881F991F4A95D1F708958F924D
:1014D0009F92AF92BF92CF92DF92EF92FF924B0119
:1014E0005C010E94420A6B017C010E94420A6C1955
:1014F0007D098E099F09683E734081059105A8F317
:1015000021E0821A9108A108B10888EEC80E83E094
:10151000D81EE11CF11C81149104A104B10429F727
:10152000FF90EF90DF90CF90BF90AF909F908F9003
:1015300008952FB7F8946091290270912A02809142
:101540002B0290912C022FBF089581E080932702F7
:101550000895089508950895AF92BF92CF92DF92B3
:10156000EF92FF920F931F93CF93DF936C017B0158
:101570008B01040F151FEB015E01AE18BF08C017E9
:10158000D10759F06991D601ED91FC910190F0815C
:10159000E02DC6010995892B79F7C501DF91CF911F
:1015A0001F910F91FF90EF90DF90CF90BF90AF9081
:1015B0000895FC01538D448D252F30E0842F90E059
:1015C000821B930B541710F0CF960895019708953E
:1015D000FC01918D828D981761F0A28DAE0FBF2F07
:1015E000B11D5D968C91928D9F5F9F73928F90E05D
:1015F00008958FEF9FEF0895FC01918D828D9817CC
:1016000031F0828DE80FF11D858D90E008958FEF08
:101610009FEF0895FC01918D228D892F90E0805CD1
:101620009F4F821B91098F739927089581E892E05B
:101630000E940A0B21E0892B09F420E0822F0895F3
:1016400080E090E0892B29F00E94160B81110C9408
:1016500000000895FC01A48DA80FB92FB11DA35A55
:10166000BF4F2C91848D90E001968F739927848FC2
:10167000A689B7892C93A089B1898C9183708064E5
:101680008C93938D848D981306C00288F389E02D86
:1016900080818F7D80830895EF92FF920F931F9337
:1016A000CF93DF93EC0181E0888F9B8D8C8D981315
:1016B0001AC0E889F989808185FF15C09FB7F89421
:1016C000EE89FF896083E889F9898081837080646D
:1016D00080839FBF81E090E0DF91CF911F910F91B8
:1016E000FF90EF900895F62E0B8D10E00F5F1F4FC7
:1016F0000F731127E02E8C8D8E110CC00FB607FCD6
:10170000FACFE889F989808185FFF5CFCE010E9463
:101710002A0BF1CFEB8DEC0FFD2FF11DE35AFF4F9C
:10172000F0829FB7F8940B8FEA89FB8980818062F1
:10173000CFCFCF93DF93EC01888D8823B9F0AA89AE
:10174000BB89E889F9898C9185FD03C0808186FD7C
:101750000DC00FB607FCF7CF8C9185FFF2CF8081CB
:1017600085FFEDCFCE010E942A0BE9CFDF91CF910B
:1017700008959B01AC0160E074E284EF90E00E9468
:101780006D25BA01A9014051510961097109DB01B7
:10179000CA01B695A79597958795813C2FE3920747
:1017A000A105B105D0F58F3F9105A105B10509F05F
:1017B00030F41092B9008093B80081E008958D3F15
:1017C00023E09207A105B10568F4DB01CA0143E0FB
:1017D000B695A795979587954A95D1F721E02093DF
:1017E000B900E9CF813F9F40A105B10558F4DB0165
:1017F000CA0135E0B695A795979587953A95D1F7A3
:1018000022E0EDCFDB01CA0127E0B695A7959795B9
:1018100087952A95D1F723E0E2CF80E00895FF92E3
:101820000F931F93CF93DF93FC0177FD72C08085E8
:101830009185681779070CF06CC057FD6AC08285E6
:101840009385481759070CF064C08689823009F4E3
:1018500066C0833009F474C0813041F4848195817D
:10186000841B950BAB01BC016150710981A592A548
:10187000681779070CF4CB0192A781A783A594A5DB
:10188000481759070CF4CA0194A783A785A596A504
:10189000861797070CF4CB0196A785A787A590A973
:1018A000841795070CF4CA0190AB87A787A98130EC
:1018B00051F42130310509F44CC008F470C02230D5
:1018C000310509F491C087A9843019F5A481B58147
:1018D0004A9FC0014B9F900D5A9F900D112497FD78
:1018E000019695958795AB0177FF02C04F5F5F4FDB
:1018F00055954795840F951F07A0F0A5E02DE80F9B
:10190000F91F908160FD95C09F702295207F922BDA
:101910009083DF91CF911F910F91FF900895848163
:1019200095818C01061B170BB801615071098681E6
:101930009781DC01A41BB50BAD014150510996CF35
:1019400086819781861B970BBA01AC0141505109E2
:101950008DCFCA0157FD0796C3E095958795CA9527
:10196000E1F7C481D5818C9FD0018D9FB00D9C9FE4
:10197000B00D1124CD01860F971FA7A1B0A5A80F08
:10198000B91FEA01C770DD2781E090E08C0101C03A
:10199000000FCA95EAF78C91802B8C9394CFCA01E3
:1019A00057FD0796B3E095958795BA95E1F7C48101
:1019B000D5818C9FD0018D9FB00D9C9FB00D1124BF
:1019C000CD01860F971FA7A1B0A5A80FB91FEA01E7
:1019D000C770DD2781E090E001C0880FCA95EAF763
:1019E00080959C918923D9CFCA0157FD0796A3E022
:1019F00095958795AA95E1F7C481D5818C9FD001F3
:101A00008D9FB00D9C9FB00D1124CD01860F971FA7
:101A1000A7A1B0A5A80FB91FEA01C770DD2781E013
:101A200090E08C0101C0000FCA95EAF78C918027E5
:101A3000B4CF907F2F70292B20836BCF0895FC01AA
:101A40006370668B8481958126813781613039F09E
:101A5000633029F091878087338722870895318703
:101A600020879387828708952F923F924F925F92AB
:101A70006F927F928F929F92AF92BF92CF92DF929E
:101A8000EF92FF920F931F93CF93DF93CDB7DEB703
:101A90006A970FB6F894DEBF0FBECDBF9A8F898FBD
:101AA0007A8369834A01D22E18870F833701BC2CB1
:101AB000DC0159962D913C915A972115310509F079
:101AC00015C118968D919C911997681779070CF09C
:101AD000D7C11A968D919C91481759070CF0D0C127
:101AE0004C2C512CB6E0CB9E600D711D11247C87CF
:101AF0006B87161617060CF0C3C1EA2DF0E0FA87C3
:101B0000E98793E0EE0FFF1F9A95E1F7F88BEF87D7
:101B1000CF01840F951F181619060CF0B1C1A98DBD
:101B2000BA8D58968C91811104C0BFEABD1508F496
:101B3000D394A98DBA8DED91FC9111970284F38510
:101B4000E02DCD010995B5E0DB9EC0011124E981AE
:101B5000FA81FC83EB83312C212C9C0126513F4FD1
:101B6000388F2F8B4A2D50E05E8B4D8BEF89F88D8F
:101B7000E20DF31D44919E828D82D12CC12C69818E
:101B80007A81620D731D7A8B698B842F90E09C8B18
:101B90008B8BE98DFA8DA081B18140FF82C0F1E08D
:101BA000BF126FC0AF126DC01C96ED91FC912F81DA
:101BB0003885A4014C0D5D1D69897A89898D9A8DBE
:101BC0000995EB89FC89F595E7954E2F5FEFC51ACE
:101BD000D50A6D817E818D899E89680F791F7E83EC
:101BE0006D8398E0C916D10481F6AFEF2A1A3A0A3C
:101BF000EB81FC81E40DF51DFC83EB83F5E02F16F2
:101C0000310409F0B3CF2F81388526153705B9F097
:101C1000A98DBA8DED91FC91B1E0BB1257C0AB120A
:101C200055C069817A816B5F7F4F0088F189E02D13
:101C3000830128E030E0A401898D9A8D0995A98D52
:101C4000BA8DED91FC9111970688F789E02DCD01B1
:101C50006A960FB6F894DEBF0FBECDBFDF91CF916D
:101C60001F910F91FF90EF90DF90CF90BF90AF90BA
:101C70009F908F907F906F905F904F903F902F90AC
:101C800009941E96ED91FC91EF80F88409851A85E0
:101C900092014D815E816B817C81898D9A8D099540
:101CA00090CF2F8138852615370509F48ACF31E08A
:101CB000B31207C0A31205C01C96ED91FC919301CD
:101CC00078CF1E96ED91FC917301E0CF6B857C85FA
:101CD000641975090684F785E02D73010F8518894D
:101CE0009201A401898D9A8D0995A9CFF9013496A5
:101CF0009491329745915491D91AB7E0DB9E400DEB
:101D0000511D1124F901259134913C8B2B8BFA0143
:101D100025903490FA013296749031963491398B33
:101D2000329664903196449041E04C1518F04A1573
:101D300008F07FC0662D062C000C770B7C836B832C
:101D4000842D042C000C990B9E838D83A98DBA8D54
:101D5000ED91FC9111970284F385E02DCD01099559
:101D6000512CD12CC12CEA2DF0E0FA87E9872B2DDC
:101D700030E03C872B87A401440D511D47FC5A9548
:101D8000588F4F8B69817A81660D711D67FC7A953A
:101D90007E876D877989C71608F051CF2C2D30E0EA
:101DA0004D815E81420F531FA985BA854A9FC001AC
:101DB0004B9F900D5A9F900D1124FC01E80DF91DC9
:101DC000F88BEF87852D612C4F89588D420F531F5B
:101DD0005E8B4D8B671408F050C044244394480E2A
:101DE000877041F4C1010196EB89FC89E20DF31D76
:101DF000D4901C01D7FE19C0A98DBA8DED91FC912C
:101E0000662D70E0B1E0BB1219C0AB1217C02D8572
:101E10003E85620F731F0484F585E02D2F81388580
:101E20004D895E89898D9A8D0995DD0C6394842D89
:101E3000D1CF1E821D821C821B8288CF4B815C8188
:101E4000640F751FAB85BC856A9FC0016B9F900DA9
:101E50007A9F900D112469817A81680F791F068419
:101E6000F785E02DEF80F88409851A859D014F855F
:101E70005889898D9A8D0995D8CF570CC3948ACFEC
:101E80006A960FB6F894DEBF0FBECDBFDF91CF913B
:101E90001F910F91FF90EF90DF90CF90BF90AF9088
:101EA0009F908F907F906F905F904F903F902F907A
:101EB00008958F929F92AF92CF92EF92FF920F93DD
:101EC0001F93CF93DF93EC01262F898D9A8D009776
:101ED00009F051C06A30D1F41D861C868D8948E016
:101EE000849F900111248E859F85820F931F9F8769
:101EF0008E8781E090E0DF91CF911F910F91FF904D
:101F0000EF90CF90AF909F908F9008956D3089F3B0
:101F1000CC88AD888F898823C1F08C859D8536E07B
:101F2000C39E800D911D1124488559854817590776
:101F300064F44E855F851D861C8638E0A39EC00133
:101F40001124840F951F9F878E87EA88FB88088954
:101F500019894E855F856C857D85CE010E94340D83
:101F60002C898C859D8546E0249F800D911D112430
:101F70009D878C87BECF6A3069F41D861C86FC0164
:101F80003896E4912D898E859F85E29F800D911D65
:101F90001124ADCF6D3009F4ACCFFC0134963491EF
:101FA000631708F4A6CF3296E491E61708F4A1CFA0
:101FB000FC01329685909490462F431B342F47E0C6
:101FC000349F800C911C1124F40132963491319687
:101FD000E4913323A9F1EE2399F1CC88F4013596ED
:101FE000E491AD884F89442301F10E2E000CFF0BC4
:101FF000E30FF11DCE9EA001CF9E500D11246C85E4
:102000007D85460F571F68857985641775076CF4C1
:102010004E855F851D861C86FC013896E491AE9E38
:10202000400D511D11245F874E87EA88FB8808897F
:1020300019894E855F856C857D85CE010E94340DA2
:10204000F4013496E4912C898C859D85E29F800D66
:10205000911D11248DCF6F927F928F929F92AF929C
:10206000BF92CF92DF92EF92FF920F931F93CF9385
:10207000DF93EC016B015A0139014801E881F981D4
:102080000284F385E02D0995E881F9810288F389BE
:10209000E02D87019301A501B601CE010995A501A7
:1020A000480D591D41505109E881F9810288F38991
:1020B000E02D9301B601CE010995E881F9810088F0
:1020C000F189E02D9401A501B601CE010995C60C58
:1020D000D71CB60161507109E881F9810088F18946
:1020E000E02D9401A501CE010995E881F9810688CA
:1020F000F789E02DCE01DF91CF911F910F91FF90D5
:10210000EF90DF90CF90BF90AF909F908F907F9097
:102110006F9009946F927F928F929F92AF92BF922D
:10212000CF92DF92EF92FF920F931F93CF93DF93A3
:102130005C01EB016A01490138018701DC01ED9185
:10214000FC916217730719F5641675062CF0962D2D
:10215000872D3A01C92ED82E9601261937092F5FEF
:102160003F4F048CF58DE02DA301BE01C5010995FB
:10217000DF91CF911F910F91FF90EF90DF90CF9063
:10218000BF90AF909F908F907F906F90089546156D
:10219000570591F42617370724F0892D4B01C22FDC
:1021A000D82F9E01281939092F5F3F4F068CF78DD4
:1021B000E02DA601B401DACF0284F385E02D099564
:1021C000D501ED91FC910488F589E02D83019401FE
:1021D000A601BE01C5010995D501ED91FC910688C6
:1021E000F789E02DC501DF91CF911F910F91FF90ED
:1021F000EF90DF90CF90BF90AF909F908F907F90A7
:102200006F900994EF92FF920F931F93DC011A963F
:102210000D911C911B9718962D913C911997ED915A
:10222000FC9100A0F1A1E02D7B0150E040E070E0C6
:1022300060E009951F910F91FF90EF9008954F92E4
:102240005F926F927F928F929F92AF92BF92CF9246
:10225000DF92EF92FF920F931F93CF93DF936C0166
:102260002B015A0139014801DC01ED91FC910284F6
:10227000F385E02D0995E201640C751CD601ED9102
:10228000FC91C615D7055CF40088F189E02D870123
:102290009401A501BE01C60109952196EFCF0688DC
:1022A000F789E02DC601DF91CF911F910F91FF902B
:1022B000EF90DF90CF90BF90AF909F908F907F90E6
:1022C0006F905F904F9009948F929F92AF92BF92C0
:1022D000CF92DF92EF92FF920F931F93CF93DF93F2
:1022E000EC015B014A016901E881F9810284F3850F
:1022F000E02D099595012C0D3D1D21503109E881F6
:10230000F9810488F589E02D78018401A401B501E3
:10231000CE010995E881F9810688F789E02DCE0183
:10232000DF91CF911F910F91FF90EF90DF90CF90B1
:10233000BF90AF909F908F9009948F929F92AF9291
:10234000BF92CF92DF92EF92FF920F931F93CF93A2
:10235000DF93EC015B014A0169017801E881F981B1
:102360000284F385E02D0995C80CD91C8601015023
:102370001109E881F9810488F589E02D9501A4010E
:10238000B501CE010995E881F9810688F789E02D2C
:10239000CE01DF91CF911F910F91FF90EF90DF90D1
:1023A000CF90BF90AF909F908F900994EF92FF9243
:1023B0000F931F93DC01ED91FC9100A0F1A1E02DA2
:1023C00009951F910F91FF90EF9008950F931F9320
:1023D000DC01ED91FC91068CF78DE02D09951F91A4
:1023E0000F9108950F931F93DC01ED91FC91048CE4
:1023F000F58DE02D09951F910F910895DC01ED9168
:10240000FC910084F185E02D09943F924F925F92F8
:102410006F927F928F929F92AF92BF92CF92DF92F4
:10242000EF92FF920F931F93CF93DF9300D000D0D2
:10243000CDB7DEB75C013B016A014901280187E0A5
:10244000480E511C93E0559447949A95E1F7CA01C0
:102450008E0D9F1D9A838983F12CE12C312C1C82D7
:102460001B828B819C8187709927330C892B61F4A7
:10247000EB81FC8183E0F595E7958A95E1F7EE0D18
:10248000FF1DE80DF91D349037FE0AC021E030E051
:10249000A6016B817C81660D771DC5010E94FE112E
:1024A0008B819C8101969C838B8308171907C9F641
:1024B0009FEFC91AD90AE40CF51C89819A81C816C4
:1024C000D90669F60F900F900F900F90DF91CF9182
:1024D0001F910F91FF90EF90DF90CF90BF90AF9042
:1024E0009F908F907F906F905F904F903F90089556
:1024F0002F923F924F925F926F927F928F929F9214
:10250000AF92BF92CF92DF92EF92FF920F931F9301
:10251000CF93DF9300D000D000D0CDB7DEB73C0121
:102520006A013E832D83FC82EB825801A41AB50A0E
:10253000B7FE03C0B194A194B1088D809E80861A25
:10254000970A97FE03C09194819491088A149B0482
:102550005CF0902F812F0D811E819D838E839C2D99
:102560008D2D6B01692F782F0C151D055CF09D8159
:102570008E817E836D83692F782F902F812F860126
:10258000C92ED82E1601201A310A2B012D813E8129
:10259000421A530A57FE03C05194419451087101E5
:1025A00037FE03C03FEFE31AF30AF594E7948D81F9
:1025B0009E81861797075CF5A1E0B0E0BA83A983F6
:1025C000C016D1064CF1D301ED91FC910484F58540
:1025D000E02D2B813C81A8016D817E818A149B04B2
:1025E0001CF04D815E81B801C3010995E418F5081E
:1025F000F7FE0AC02D813E8189819A81280F391FFB
:102600003E832D83E20CF31C0F5F1F4FD9CF2FEFBA
:102610003FEF3A832983D4CF26960FB6F894DEBFD6
:102620000FBECDBFDF91CF911F910F91FF90EF9023
:10263000DF90CF90BF90AF909F908F907F906F90E2
:102640005F904F903F902F90089508958F929F92A2
:10265000AF92BF92CF92DF92EF92FF921F93CF93F0
:10266000DF93FC018281938168177907A8F54A01FD
:10267000AA24BB24C82DC32ED42EE52EFF241C2D46
:10268000D22F8085882361F0889E40011124C92DB6
:102690008C9D600111241D2D829FD0011124DB2F00
:1026A000A685E184F2849385A91322C0CB01880F0B
:1026B000991F680F791F6E0D7F1DA385A60FB72F79
:1026C000B11DCC93A485A60FB72FB11D1C93858592
:1026D000680F711DFB01D083DF91CF911F91FF9097
:1026E000EF90DF90CF90BF90AF909F908F90089524
:1026F000660F771F660F771F6E0D7F1D252F3327FF
:1027000044275527882349F090E0829F7001839FDA
:10271000F00C929FF00C11242F2DA60FB72FB11D96
:102720002C93CBCFCF92DF92EF92FF920F931F9318
:10273000CF93DF93CDB7DEB729970FB6F894DEBFFE
:102740000FBECDBF8C01DC0119968D919C91892B18
:1027500009F473C00E94420AF801C784D088E18856
:10276000F2886C157D058E059F0520F46787708BB8
:10277000818B928BF801C784D088E188F2886C192C
:102780007D098E099F096C3271408105910510F316
:10279000F894D80114968D919C9115979A8389830A
:1027A0001996ED91FC917F01BFEFEB1AFB0A808136
:1027B0008987F80190810388F489E02DD801559626
:1027C0008C91992309F448C09081982B9887908127
:1027D000809589238F838F818C8388E08B835885B4
:1027E0006F8149853B812C8189819A81D7015083F2
:1027F00047FD252F3A952083262F39F0441F00C02E
:1028000000006083000000C0F2CF38E04D9160838B
:102810000000019761F7D8015496FC93EE9353970B
:1028200049873B832C839A83898378940E94420A48
:10283000F8016787708B818B928B29960FB6F8947D
:10284000DEBF0FBECDBFDF91CF911F910F91FF90E3
:10285000EF90DF90CF9008959081982B988790818A
:10286000809589238F838F818E8388E08D8358851F
:102870006F8149853D812E8189819A81D70150835D
:1028800047FD252F00C000C0208300C000C000C04D
:1028900000C000C060830000262F3A9541F0441F1D
:1028A000000000C000C000C000C000C0E8CF38E099
:1028B0004D9100C0608300C0019709F7D80154967C
:1028C000FC93EE93539749873D832E83ACCF2091A1
:1028D000FD01260F3327331F21323105ECF42091FF
:1028E0005702FC0190E080E0243069F082E0089516
:1028F000A091FD012191AC0143525E4FA40FB52F71
:10290000B11D2C930196861798F38091FD01680FF5
:102910006093FD0180E0089581E0089510925702D0
:1029200081E0809356021092310261E082E10E94C0
:10293000BD0861E083E10E94BD08E9EBF0E0808121
:102940008E7F808380818D7F808388E48093B80030
:1029500085E48093BC000895CF93DF9391E090933A
:10296000DC018823B9F0C091B800D091BA00809101
:10297000BC008A7B8093BC0060E082E10E94BD08BD
:1029800060E083E10E94BD080E948E14D093BA00DB
:10299000C093B800DF91CF9108958F929F92AF922C
:1029A000BF92CF92DF92EF92FF920F931F93CF933C
:1029B000DF93D0918002D13208F0D7C0182FC09198
:1029C0007F020E94420A6B017C01809157028111B3
:1029D0006BC082E080935702109356028FEF809372
:1029E000550210925402D0935302AFE5B2E0E3E3F4
:1029F000F2E080E0D81391C010923202809132024E
:102A0000CC0FC82BC093320280913102813009F083
:102A100088C0109231020E94420A6B017C018091B1
:102A200032028093BB008091590290915A02A0918A
:102A30005B02B0915C02892B8A2B8B2BA1F00E9448
:102A4000420A0091590210915A0220915B02309182
:102A50005C026C197D098E099F0906171707280764
:102A6000390708F442C08091BC0083FDD8CF85ECC3
:102A70008093BC000E94420A6B017C018091570246
:102A8000823009F450C0809155028F3F09F46FC025
:102A900080915502803209F46CC0809155028033D8
:102AA00009F469C084E026C08091590290915A02CD
:102AB000A0915B02B0915C02892B8A2B8B2B09F4CD
:102AC00084CF0E94420A8090590290905A02A090AE
:102AD0005B02B0905C026C197D098E099F09861615
:102AE0009706A806B90608F070CF809158020E9498
:102AF000AC1485E010925E021092800210925D028A
:102B0000DF91CF911F910F91FF90EF90DF90CF90C9
:102B1000BF90AF909F908F9008959D9191938F5FFC
:102B200069CF85EEA5CF8091590290915A02A0916C
:102B30005B02B0915C02892B8A2B8B2B09F49ECF10
:102B40000E94420A0091590210915A0220915B02A0
:102B500030915C026C197D098E099F0906171707D1
:102B60002807390708F08ACFC0CF81E0C3CF80E0C3
:102B7000C1CF82E0BFCF83E0BDCFCF92DF92EF9293
:102B8000FF920F931F93CF93DF93DA01A00FB11F32
:102B9000EC01EC81FD81EA17FB0710F490E024C002
:102BA0007A016B0189819A81488151E050935D02DD
:102BB00040937F0210925E0210928002012BF1F48A
:102BC00089819A81DC01ED91FC910280F381E02DF5
:102BD000A701B6010995E816F90601F781E00E9400
:102BE000CD1491E08111DACF892FDF91CF911F9120
:102BF0000F91FF90EF90DF90CF9008952115310550
:102C0000F9F2DC01ED91FC910280F381E02D41E0CD
:102C100050E0B9010995019709F6D2CF0F931F93A0
:102C2000CF93DF9300D01F92CDB7DEB78C016B83BB
:102C3000FC01858D968D0097B1F01A8219826A8306
:102C400010E000E030E020E042E050E0BE016F5FC5
:102C50007F4F0E94BD150F900F900F90DF91CF9185
:102C60001F910F91089560E081A90E94BD0841E085
:102C700050E0BE016D5F7F4FF801838D948D0E94FF
:102C8000EE09E9CF611103C066EA0C940E1667EAFB
:102C9000FCCF2F923F924F925F926F927F928F92D2
:102CA0009F92AF92BF92CF92DF92EF92FF920F93DB
:102CB0001F93CF93DF93CDB7DEB72A970FB6F89463
:102CC000DEBF0FBECDBF7C0180E48D83D701169699
:102CD0002D913C91C901079697FD079673E0959554
:102CE00087957A95E1F78987F70144815581242FEB
:102CF00083A594A597FD079663E0959587956A95BA
:102D0000E1F7382ED70199964C90241508F4442EFB
:102D1000F70165A576A577FD60E0DA01BB27B887E6
:102D2000AF83842C912C5401489FA00CB11C11241A
:102D30002F5F260F2A87B9853B1608F097C0F70149
:102D4000C7A0D0A4CA0CDB1C84815A84581A54181A
:102D5000058CF68DE02D90EB930DD701DA968C91D2
:102D60009401280F311D44E0359527954A95E1F7E8
:102D7000205F840D8F70309709F456C06480758091
:102D8000B1E06B1A71081A8219829A832B838C83A3
:102D9000F701678D70A181A192A16933F0E97F07E6
:102DA000FDE08F07910510F40E94B90B10E000E0E0
:102DB00030E020E044E050E0BE016F5F7F4FD7017C
:102DC0005D968D919C910E94BD156E825520B1F04B
:102DD0002E80521408F4252C622C712C01E010E096
:102DE0009E012B5F3F4FA301B601F701858D968DA4
:102DF0000E94BD15C60CD71C5218E8CFD701939678
:102E00006D917D918D919C9196976933B0E97B0787
:102E1000BDE08B07910510F40E94B90B3394EF814C
:102E2000F885AE0EBF1E87CF99832A838B8360E01F
:102E3000F70181A90E94BD0843E050E0BE016F5F29
:102E40007F4FD7015B968D919C910E94EE0961E0C6
:102E5000F70181A90E94BD08452D50E0B601D701B8
:102E60005B968D919C910E94EE09D8CF80E094E012
:102E7000D7019A969C938E9399979C969C938E9348
:102E80009B978FEF9FEF9E969C938E939D97D096E6
:102E90009C938E939F972A960FB6F894DEBF0FBE31
:102EA000CDBFDF91CF911F910F91FF90EF90DF90F9
:102EB000CF90BF90AF909F908F907F906F905F90DA
:102EC0004F903F902F900895CF93DF93EC018B812B
:102ED0008823A1F0888191E090935D0280937F0226
:102EE00010925E021092800281E00E94CD1491E067
:102EF000811190E0892FDF91CF91089510922602E1
:102F00001092250210925E02109280020E948E148E
:102F100089EA9AE090932402809323028AEA9AE055
:102F2000909322028093210281E08B83CE010E9444
:102F30006417982F8111CECFDDCFE09126028091CA
:102F40002502E81730F4F0E0E454FE4F808190E071
:102F500008958FEF9FEF08959091260280912502AA
:102F60002FEF3FEF981748F4E92FF0E0E454FE4FBD
:102F7000208130E09F5F90932602C90108958091DF
:102F8000250290912602891B990B0895CF92DF921A
:102F9000EF92FF920F931F93CF93DF937C01CB01AE
:102FA0008A0120915D02222389F0EB016B01C40E9E
:102FB000D51ECC15DD0569F06991D701ED91FC9125
:102FC0000190F081E02DC7010995F3CF642F0E9495
:102FD0006714C801DF91CF911F910F91FF90EF907F
:102FE000DF90CF900895CF93DF931F92CDB7DEB7D8
:102FF000698320915D022223F9F020918002203222
:1030000058F021E030E0FC013383228390E080E03F
:103010000F90DF91CF91089580915E02E82FF0E04C
:10302000E15AFD4F998190838F5F80935E02809378
:10303000800281E090E0ECCF61E0CE0101960E9439
:103040006714F7CF90E080E008950F931F93CF931C
:10305000DF93EC018FE491E0998388838FA198A599
:10306000009721F00E94012A18A61FA20B8D1C8D2B
:103070000115110551F0F80182819381009711F03B
:103080000E94012AC8010E94012A8D8D9E8D009701
:1030900031F0DF91CF911F910F910C94012ADF91B4
:1030A000CF911F910F910895CF93DF93EC010E9470
:1030B0002518CE01DF91CF910C94012AFC010190DB
:1030C0000020E9F73197AF01481B590BBC018FE293
:1030D00093E00C94AC0A0F931F93CF93DF938C0172
:1030E000D0E0C0E0F801EC0FFD1F6491662341F0D1
:1030F0008FE293E00E94590F892B11F02196F2CFB5
:103100008BEA91E00E945E188C0F9D1FDF91CF919A
:103110001F910F9108958F929F92AF92BF920F933C
:103120001F93CF93DF93CDB7DEB7A1970FB6F89477
:10313000DEBF0FBECDBF19A2423008F44AE08E01B7
:103140000F5D1F4F842E912CB12CA12CA501940151
:103150000E946D25E62FB901CA01EA30F4F4E05D62
:10316000D801EE938D01232B242B252B79F790E0AA
:1031700080E0109719F0CD010E945E18A1960FB65D
:10318000F894DEBF0FBECDBFDF91CF911F910F919D
:10319000BF90AF909F908F900895E95CE1CF4F92E0
:1031A0005F926F927F928F929F92AF92BF92CF92D7
:1031B000DF92EF92FF920F931F93CF936B017C01ED
:1031C000742EAC019B010E942528882399F08EEA79
:1031D00091E0CF911F910F91FF90EF90DF90CF90F2
:1031E000BF90AF909F908F907F906F905F904F9027
:1031F0000C945E1846015701E894B7F82FEF3FEFA3
:103200004FE75FE7C501B4010E94252881110DC079
:103210002FEF3FEF4FE75FE7C501B4010E940B2698
:1032200018161CF482EB91E0D4CF2FEF3FEF4FE75D
:103230005FE4C701B6010E94632718161CF486EBF1
:1032400091E0C7CF2FEF3FEF4FE75FECC701B6012B
:103250000E940B2687FDF3CF20E030E0A901C701D3
:10326000B6010E940B2610E000E087FF0AC06DE265
:103270008FE293E00E94590F8C01F7FAF094F7F86F
:10328000F094C0E060E070E080E09FE37C1641F0E5
:1032900020E030E040E251E40E941026CF5FF6CFFC
:1032A000A70196010E949F252B013C010E948226C6
:1032B0004B015C014AE00E948B187C01E00EF11E7C
:1032C000CC23C1F1C501B4010E94B1269B01AC0120
:1032D000C301B2010E949E254B015C016EE28FE2A8
:1032E00093E00E94590FE80EF91EC15018F120E03A
:1032F00030E040E251E4C501B4010E9468272B018F
:103300003C010E9482264B01B12CA12C4AE0C50150
:10331000B4010E948B18E80EF91EC501B4010E9489
:10332000B1269B01AC01C301B2010E949E254B0155
:103330005C01DBCFC701CF911F910F91FF90EF9000
:10334000DF90CF90BF90AF909F908F907F906F90C5
:103350005F904F900895CF93DF93EC012FA98C815C
:103360009D81289FB001299F700D11242E813F81DE
:10337000C901079697FD079623E0959587952A95AD
:10338000E1F7689FA001699F500D789F500D1124AF
:1033900070E060E08FA198A50E948F2A1AA619A656
:1033A0001CA61BA68C819D8101979EA78DA78E814F
:1033B0009F81019798AB8FA7DF91CF910895CF920E
:1033C000DF92EF92FF921F93CF93DF936B017C010B
:1033D000CFE2D3E085E090E09D878C8788E090E0A5
:1033E0009F878E8712E01C8B1D8B8DEA90E10E94D7
:1033F0006B181C8B1D8B42E0C701B6010E94CF18D1
:103400001C8B1D8B8AEA90E10E946B18CE010E94F2
:10341000491668EC70E080E090E00E94670ACE01F7
:103420000E94AB19CE01DF91CF911F91FF90EF90D9
:10343000DF90CF900C944916CF92DF92EF92FF92DB
:103440001F93CF93DF936B017C01CFE2D3E085E044
:1034500090E09D878C8788E090E09F878E8712E0C0
:103460001C8B1D8B8EE990E10E946B181C8B1D8BB1
:1034700042E0C701B6010E94CF181C8B1D8B89E961
:1034800090E10E946B18CE010E94491668EC70E032
:1034900080E090E00E94670ACE010E94AB19CE0145
:1034A000DF91CF911F91FF90EF90DF90CF900C9420
:1034B0004916CF92DF92EF92FF921F93CF93DF9343
:1034C0006B017C01CFE2D3E085E090E09D878C87A3
:1034D00088E090E09F878E8712E01C8B1D8B8CE824
:1034E00090E10E946B181C8B1D8B42E0C701B60156
:1034F0000E94CF181C8B1D8B87E890E10E946B18EF
:10350000CE010E94491668EC70E080E090E00E94D5
:10351000670ACE010E94AB19CE01DF91CF911F91B6
:10352000FF90EF90DF90CF900C944916CF93DF93EC
:10353000D82F8FE293E00E94AB1981E08093430380
:103540008093440310923C0310923B0310923E037D
:1035500010923D0380E790E10E946B1884E0809315
:10356000430380934403D43599F48AE690E10E94A2
:103570006B18C3E58FE293E00E94491668E572E09C
:1035800080E090E00E94670A8C2FDF91CF91089530
:10359000D33581F784E690E10E946B18C4E5EACF49
:1035A0000E948A2A85ED8093BC00809159029091F7
:1035B0005A02A0915B02B0915C020796A11DB11D59
:1035C00023E0B695A795979587952A95D1F72091F1
:1035D000BC0024FD03C01092570208954091590287
:1035E00050915A0260915B0270915C02452B462B10
:1035F000472B69F30097A105B10541F02AE22A950E
:10360000F1F700C00197A109B109E1CF80915802FB
:103610000C94AC141F920F920FB60F9211242F939B
:103620003F938F939F93AF93BF9380912902909183
:103630002A02A0912B02B0912C023091280223E0A3
:10364000230F2D3758F50196A11DB11D2093280297
:103650008093290290932A02A0932B02B0932C020C
:1036600080912D0290912E02A0912F02B0913002F4
:103670000196A11DB11D80932D0290932E02A0935F
:103680002F02B0933002BF91AF919F918F913F91E4
:103690002F910F900FBE0F901F90189526E8230FC3
:1036A0000296A11DB11DD2CF1F920F920FB60F929D
:1036B00011242F933F934F935F936F937F938F9337
:1036C0009F93AF93BF93EF93FF93E0910201F0912B
:1036D00003010995FF91EF91BF91AF919F918F9158
:1036E0007F916F915F914F913F912F910F900FBEFE
:1036F0000F901F9018951F920F920FB60F921124E2
:103700002F933F934F935F936F937F938F939F93E9
:10371000AF93BF93EF93FF93E0910001F09101010C
:103720000995FF91EF91BF91AF919F918F917F91FB
:103730006F915F914F913F912F910F900FBE0F901E
:103740001F9018951F920F920FB60F9211242F936E
:103750003F934F935F936F937F938F939F93AF9319
:10376000BF93EF93FF9381E892E00E942A0BFF91B1
:10377000EF91BF91AF919F918F917F916F915F91E9
:103780004F913F912F910F900FBE0F901F90189562
:103790001F920F920FB60F9211242F938F939F9326
:1037A000EF93FF93E0919102F09192028081E0917A
:1037B0009702F091980282FD1BC0908180919A023D
:1037C0008F5F8F7320919B02821741F0E0919A02E4
:1037D000F0E0EF57FD4F958F80939A02FF91EF91A4
:1037E0009F918F912F910F900FBE0F901F90189562
:1037F0008081F4CF1F920F920FB60F9211242F9356
:103800003F934F935F936F937F938F939F93AF9368
:10381000BF93EF93FF938091B900887F803609F4BE
:103820004AC0F0F5883209F4A7C018F5803109F4D0
:103830009BC0B8F4882309F4F9C0883009F494C017
:10384000FF91EF91BF91AF919F918F917F916F9178
:103850005F914F913F912F910F900FBE0F901F904E
:103860001895883109F488C0803251F78093550249
:1038700014C0803409F49DC040F48033B9F3883318
:10388000F9F68093550285ECB0C0803509F485C007
:10389000883509F496C0883499F60E94D21AD0CFA0
:1038A000883909F48CC038F5883729F050F4883607
:1038B00011F0803729F683E08093570210921F029F
:1038C00057C0883809F47BC0803919F0803809F076
:1038D000B7CF80911F02803208F071C0E0911F02C3
:1038E00081E08E0F80931F028091BB00F0E0E150D9
:1038F000FE4F80833DC0803B39F0E0F4803A09F40C
:1039000079C0883A09F09CCF84E0809357021092E6
:10391000FE011092FD01E0912302F091240209952D
:103920008091FD0181110FC081E08093FD01109213
:10393000DD0109C0803C09F4A6CF883C09F4A3CF7F
:10394000883B09F07DCFE091FE0181E08E0F8093EE
:10395000FE01F0E0E352FE4F80818093BB00909126
:10396000FE018091FD0129C0809132028093BB004D
:1039700085EC8093BC0064CF9091540280915302F7
:10398000981758F5E091540281E08E0F809354020D
:10399000F0E0ED5CFD4F8081E9CFE091540281E0E1
:1039A0008E0F809354028091BB00F0E0ED5CFD4FE0
:1039B000808390915402809153029817C8F285E851
:1039C000D8CFE091540281E08E0F80935402809111
:1039D000BB00F0E0ED5CFD4F8083809156028111C9
:1039E0005CCF81E08093310284EA8093BC00109226
:1039F000570226CF85EC8093BC001092570280912D
:103A00001F02803230F4E0911F02F0E0E150FE4FDF
:103A1000108260911F0270E0E0912102F091220279
:103A20008FEF91E0099510921F020ACF1092550274
:103A300034CFCF93DF93EC01198218861F86188A42
:103A4000198A1A8A81E08E878B871C8692E09D876F
:103A500088838FE090E09D838C830E9465299A87FC
:103A60008987009759F12FE0FC0111922A95E9F717
:103A700085E090E09B838A8383E090E09F838E8340
:103A80008981882341F061E083E00E94EB0860E0D7
:103A900083E00E94BD08E3E5F0E1E491F0E0EE0F81
:103AA000FF1FEA5BFF4E859194919C8B8B8BE5E326
:103AB000F0E1E491ED8BDF91CF9108951D821C829E
:103AC0001B821A82D9CFCF93DF93E1E8F2E0138211
:103AD000128288EE93E0A0E0B0E084839583A68311
:103AE000B7832BE231E03183208325EC30E035874A
:103AF000248724EC30E03787268720EC30E0318BB8
:103B0000208B21EC30E0338B228B22EC30E0358BA4
:103B1000248B26EC30E0378B268B118E128E138E81
:103B2000148EC3E2D3E01B821A828C839D83AE8302
:103B3000BF838DE391E09983888380E893E00E94BE
:103B4000191DE1E2F3E086E0808382E08183EEE10B
:103B5000F3E081E180838AE0818384E08283EFE285
:103B6000F3E01382128220E830E03583248380E47E
:103B700090E0978386833187208793878287168A90
:103B8000158614861786168621E0258B248B8FEFE9
:103B90009FEF938B828B918B808B278B108E128E55
:103BA000118E148E138E168E158E40E85AE166E043
:103BB00070E0478F50A361A372A340EA56E861E02A
:103BC00070E043A354A365A376A310A617A292ABFB
:103BD00081AB94AB83AB96AB85AB27ABD1AFC0AF1A
:103BE00012AE8DE791E0918380838AE693E0DF91C6
:103BF000CF910C94191DCF93DF93CDB7DEB76897A3
:103C00000FB6F894DEBF0FBECDBF789484B5826046
:103C100084BD84B5816084BD85B5826085BD85B570
:103C2000816085BD80916E00816080936E001092EE
:103C30008100809181008260809381008091810069
:103C400081608093810080918000816080938000FA
:103C50008091B10084608093B1008091B000816058
:103C60008093B00080917A00846080937A00809184
:103C70007A00826080937A0080917A0081608093DC
:103C80007A0080917A00806880937A001092C10057
:103C9000E0919102F091920282E08083E0918D02A6
:103CA000F0918E021082E0918F02F09190028FECE1
:103CB000808310929902E0919502F091960286E03D
:103CC0008083E0919302F0919402808180618083EF
:103CD000E0919302F0919402808188608083E0916A
:103CE0009302F0919402808180688083E091930236
:103CF000F091940280818F7D808361E083E00E9457
:103D0000EB0860E082E00E94EB0861E088E00E943E
:103D1000EB0861E089E00E94EB0861E087E00E9427
:103D2000EB0861E084E00E94EB0861E080911E03F3
:103D30000E94EB0861E080911F030E94EB0861E0A4
:103D4000809120030E94EB0861E0809120030E9493
:103D5000BD0860E971E080E090E00E94670A60E0E1
:103D6000809120030E94BD0861E087E00E94BD08A9
:103D700060E088E00E94BD0860E089E00E94BD0824
:103D800061E080911E030E94BD0880E09FEFAFEFCD
:103D9000B0E089839A83AB83BC8380E890E0DC0148
:103DA0008D839E83AF83B88780ED90EEA0E4B0E072
:103DB00089879A87AB87BC878E010F5F1F4FF12CD5
:103DC000E12C5801D12CC12CF80120813181428194
:103DD0005381B6018AE693E00E942613FFEFCF1AC3
:103DE000DF0A25E0C216D10479F78AE693E00E9443
:103DF000921364EF71E080E090E00E94670AE114A2
:103E0000F10481F461E0809120030E94BD0861E02B
:103E100080911F030E94BD0864EF71E080E090E094
:103E20000E94670A6CE271E080E090E00E94670AFD
:103E300060E0809120030E94BD0860E080911F0334
:103E40000E94BD083FEFE31AF30A0C5F1F4F43E0E7
:103E5000E416F10409F0B6CF10E000E020E030E015
:103E6000A901B8018AE693E00E9426130F5F1F4F55
:103E70000530110599F78AE693E00E94921364EFEA
:103E800071E080E090E00E94670A61E08091210388
:103E90000E94EB0861E0809121030E94BD086AEF57
:103EA00070E080E090E00E94670A80915603909154
:103EB0005703892B09F487C08091640390916503AF
:103EC00097FD24C061E00E94EB0861E080916403EB
:103ED0000E94BD086AE070E080E090E00E94670AFE
:103EE00060E0809164030E94BD086AE070E080E0B9
:103EF00090E00E94670A61E0809164030E94BD081F
:103F00006AE070E080E090E00E94670AE09067035A
:103F1000F0906803E114F10409F444C186E090E0F4
:103F20000E9465298C018CE3F8018083F282E18292
:103F3000138280E290E09583848310934D03009375
:103F40004C030115110509F467C010922602109266
:103F5000250210925E02109280020E948E1489EA5D
:103F60009AE090932402809323028AEA9AE0909345
:103F700022028093210281E0F8018383C8010E941C
:103F80006417882309F448C08FE293E00E94AB19BC
:103F9000109259031092580310925B0310925A0327
:103FA0008091330390913403019790935D03809344
:103FB0005C038091350390913603019790935F03E2
:103FC00080935E0329C02091660380913303909112
:103FD0003403289FA001299F500D112420913503FF
:103FE00030913603C901079697FD079623E0959512
:103FF00087952A95E1F7FC014E9FC0014F9F900DD8
:104000005E9F900D11240E94652990935703809321
:104010005603892B09F050CF82E080936903809189
:10402000350390913603AC014052510957FF02C04D
:104030004F5F5F4F559547956091330370913403FF
:104040006357710977FF02C06F5F7F4F7595679562
:10405000B0E2EB2EF12C03E710E02AEE35E08FE220
:1040600093E00E94051280914C0390914D030097BC
:1040700009F40FC1198201E010E0950149E150E017
:104080006EE071E00E94BD15882359F064E670E08F
:1040900080E090E00E94670A6FEA8FE293E00E945E
:1040A0000E168FE293E00E94AB19E0E4EE2EF12CA5
:1040B00000E810E02AEC3BE050E040E070E060E017
:1040C0008FE293E00E9405128FE293E00E9449166E
:1040D0006AEF70E080E090E00E94670A8FE293E070
:1040E0000E94AB192AEC37E050E040E070E060E05D
:1040F0008FE293E00E9405128FE293E00E9449163E
:1041000064EF71E080E090E00E94670A81E090E057
:1041100090934203809341039093400380933F0325
:104120008FE293E00E94AB1984E50E94961A382E24
:10413000812C912C5401D12CC12CEE24E394F12C30
:104140002091220330E0F901E25EFF4E8491F901F3
:10415000EE5CFF4E0491F901E05BFF4E14911123D8
:1041600009F4A6C381110E949408E12FF0E0EE0F3C
:10417000FF1FE653F04FA591B491EC910E2309F483
:1041800097C3E1E0EE16F10409F49AC30E94990A7C
:104190006C197D094B01770FAA08BB08EE24E39444
:1041A000F12C8EC300914A0310914B0301151105A8
:1041B00009F432CFF80183858F3F41F061E00E941E
:1041C000EB0861E0F80183850E94BD08F801808159
:1041D0009181892B09F43CC0FFB6F89480912002AC
:1041E000811127C0EAE5F0E18491ECE3F0E19491DC
:1041F000E82FF0E0EE0FFF1FEC5EFF4EA591B491AB
:10420000EC919E2321F461E08AE00E94BD0861E008
:104210008AE00E94EB088CB580618CBD8CB580640F
:104220008CBD61E08DE00E94EB0861E08BE00E94B4
:10423000EB08809120028F5F80932002FFBE81E017
:10424000F801838F61E0809160030E94EB089CCEAF
:1042500061E084850E94EB08F80182858B7F60E035
:1042600009F061E084850E94BD08F80185858F3FD3
:1042700041F061E00E94EB0861E0F80185850E9451
:10428000BD08F80186858F3FD1F260E00E94EB08FF
:10429000D6CF60E0809160030E94BD0849E150E004
:1042A0006EE071E080914A0390914B030E94EE0909
:1042B000EBCE29EE821623E09206A104B10408F4A5
:1042C0003FCF8FE293E00E94AB1984E190E090939E
:1042D0003C0380933B0310923E0310923D0383E026
:1042E000809343038093440334E58BED9FE03316C2
:1042F00011F084ED9FE00E946B188FE293E00E9422
:10430000491668EE73E080E090E00E94670A0E9420
:10431000990A6B017C0152E0B52E6C197D098E095A
:104320009F09603E7E428105910550F58FE293E042
:104330000E94AB1910923C0310923B0310923E0373
:1043400010923D03B0924303B092440382EE9FE08B
:104350000E946B180AE010E08AEB91E00E945E1860
:1043600068E572E080E090E00E94670A8FE293E0E7
:104370000E9449160150110979F70E94990ACDCF80
:104380008FE293E00E94AB198FE293E00E944916FE
:1043900085EA9AE090930101809300018091690081
:1043A000836080936900E89A1D8A1E8A1F8A188E8E
:1043B00032E0B32E44E0A42E0E94990A6B017C01E6
:1043C000DC01CB012D893E894F89588D821B930BCF
:1043D000A40BB50B883B9B40A105B10508F482C036
:1043E0008EE00E941C09BC01990F880B990B0E945A
:1043F000B3262AE038E240EA5BE30E9468272B01FB
:104400003C01AC019B0160E070E080EA90E40E9416
:104410009E25A30192010E94102620E030E040E298
:1044200051E40E94682720E030E048E454E40E9410
:1044300010269B01AC0160E070E080E690E40E94F1
:10444000102629E739EE46E95FE30E94D527698BFC
:104450007A8B8B8B9C8B8FE00E941C09BC01990F7F
:10446000880B990B0E94B3262AE038E240EA5BE30E
:104470000E9468272B013C01AC019B0160E070E0C9
:1044800080EA90E40E949E25A30192010E941026DA
:1044900025E83BEE41E55FE30E94682720E030E03D
:1044A00040EA51E40E9410262AE939E949E15EE335
:1044B0000E9468272B013C010E94E32424E030E0A5
:1044C00040E050E00E943B25615F7F4F8F4F9F4F40
:1044D0000E94B3266D877E878F87988BCD8ADE8A70
:1044E000EF8AF88E80912702882309F465CF20E0B7
:1044F00030E04CE951E46D857E858F8598890E9476
:10450000632787FD69C02AE0E22EF12C10E000E06D
:1045100020E030E04FEF50E0B80180E893E00E94E7
:1045200026130F5F1F4F0530110591F780E893E0C8
:104530000E94921361E084E00E94BD086D857E8533
:104540008F8598890E94DF1968EC70E080E090E028
:104550000E94670A10E000E02FEF30E040E050E0FA
:10456000B80180E893E00E9426130F5F1F4F0530CB
:10457000110591F780E893E00E94921360E084E0D7
:104580000E94BD086D857E858F8598890E94DF1900
:1045900068EC70E080E090E00E94670A41E0E41A75
:1045A000F10809F0B3CF10E000E020E030E0A9010D
:1045B000B80180E893E00E9426130F5F1F4F05307B
:1045C000110599F780E893E00E94921368EC70E07F
:1045D00080E090E00E94670A20E030E048EC51E47F
:1045E00069897A898B899C890E94632787FD61C0CC
:1045F0009AE0E92EF12C10E000E020E030E04FEFEF
:1046000050E0B80180E893E00E9426130F5F1F4F2F
:104610000530110591F780E893E00E9492136989B3
:104620007A898B899C890E941C1A68EC70E080E072
:1046300090E00E94670A10E000E02FEF30E040E0D9
:1046400050E0B80180E893E00E9426130F5F1F4FEF
:104650000530110591F780E893E00E949213698973
:104660007A898B899C890E941C1A68EC70E080E032
:1046700090E00E94670A51E0E51AF10809F0BBCF0B
:1046800010E000E020E030E0A901B80180E893E00C
:104690000E9426130F5F1F4F0530110599F780E820
:1046A00093E00E94921368EC70E080E090E00E943A
:1046B000670A20E030E040EA50E4C301B2010E9402
:1046C000632787FD5DC08AE0E82EF12C10E000E052
:1046D00020E030E04FEF50E0B80180E893E00E9426
:1046E00026130F5F1F4F0530110591F780E893E007
:1046F0000E949213C301B2010E94591A68EC70E043
:1047000080E090E00E94670A10E000E02FEF30E0C8
:1047100040E050E0B80180E893E00E9426130F5F6C
:104720001F4F0530110591F780E893E00E94921326
:10473000C301B2010E94591A68EC70E080E090E079
:104740000E94670A81E0E81AF10809F0BFCF10E083
:1047500000E020E030E0A901B80180E893E00E9489
:1047600026130F5F1F4F0530110599F780E893E07E
:104770000E94921368EC70E080E090E00E94670A6B
:104780008FE293E00E94AB19B0924303B0924403CE
:1047900010923C0310923B0310923E0310923D0393
:1047A0008EE090E10E946B18A0924303A092440314
:1047B00042E06D857E858F8598890E94CF188BE0B9
:1047C00090E10E946B188FE293E00E94491668EB1B
:1047D0007BE080E090E00E94670A8FE293E00E9415
:1047E000AB198FE293E00E94491610923C0310929D
:1047F0003B0310923E0310923D03B0924303B092EC
:10480000440381E090E10E946B18A0924303A092C0
:10481000440342E069897A898B899C890E94CF1878
:104820008BEA91E00E945E188FE293E00E944916A5
:1048300068EB7BE080E090E00E94670A8FE293E003
:104840000E94AB198FE293E00E94491610923C033C
:1048500010923B0310923E0310923D03B09243032B
:10486000B092440386EF9FE00E946B18A09243032E
:10487000A092440342E0C301B2010E94CF188BEA28
:1048800091E00E945E188FE293E00E94491668EB67
:104890007BE080E090E00E94670A8FE293E00E9454
:1048A000AB198FE293E00E9449161092270284CD43
:1048B000E114F10429F00E94990A6B01F12CE12C1A
:1048C000D501C40185569109A109B1098F389140DC
:1048D000A105B10508F0EDCC832D0E94961A382E63
:1048E000812C912C54012CCC8091730390917403F2
:1048F0000E94012A809170039091710397FD03C07B
:1049000060E00E94EB088FE293E00E9425188091FE
:10491000890390918A030E94012A809186039091D5
:10492000870397FD03C060E00C94EB0808958F9215
:104930009F92AF92BF92CF92DF92EF92FF92CF936E
:10494000DF93EC01688179818A819B816115710512
:104950008105910521F464E279ED8BE597E02DE185
:1049600033EF41E050E00E943B2549015A019B0191
:10497000AC01A7EAB1E40E945A256B017C01ACEEC0
:10498000B4EFA50194010E946825C60ED71EE81E4B
:10499000F91EF7FE06C081E0C81AD108E10880E8D8
:1049A000F80AC882D982EA82FB82C701B6019F77E2
:1049B000DF91CF91FF90EF90DF90CF90BF90AF90BD
:1049C0009F908F9008958F929F92AF92BF92CF92B7
:1049D000DF92EF92FF926091040170910501809146
:1049E000060190910701611571058105910521F47A
:1049F00064E279ED8BE597E02DE133EF41E050E0A3
:104A00000E943B2549015A019B01AC01A7EAB1E490
:104A10000E945A256B017C01ACEEB4EFA501940114
:104A20000E946825C60ED71EE81EF91EF7FE06C0B6
:104A300081E0C81AD108E10880E8F80AC0920401B0
:104A4000D0920501E0920601F0920701C701B6017C
:104A50009F77FF90EF90DF90CF90BF90AF909F90A7
:104A60008F9008956093040170930501809306016F
:104A7000909307010895052E97FB1EF400940E9461
:104A8000522557FD07D00E946D2507FC03D04EF438
:104A90000C94522550954095309521953F4F4F4F9E
:104AA0005F4F089590958095709561957F4F8F4FDA
:104AB0009F4F08950E948F25A59F900DB49F900D44
:104AC000A49F800D911D11240895B7FF0C945A25C1
:104AD0000E945A25821B930B0895A1E21A2EAA1B4D
:104AE000BB1BFD010DC0AA1FBB1FEE1FFF1FA2179E
:104AF000B307E407F50720F0A21BB30BE40BF50B9B
:104B0000661F771F881F991F1A9469F76095709523
:104B1000809590959B01AC01BD01CF010895A29FA6
:104B2000B001B39FC001A39F700D811D1124911D81
:104B3000B29F700D811D1124911D08955058BB27FF
:104B4000AA270E94B6250C9429270E941B2738F01B
:104B50000E94222720F039F49F3F19F426F40C9488
:104B600018270EF4E095E7FB0C941227E92F0E941A
:104B70003A2758F3BA17620773078407950720F09E
:104B800079F4A6F50C945C270EF4E0950B2EBA2F61
:104B9000A02D0B01B90190010C01CA01A001112443
:104BA000FF27591B99F0593F50F4503E68F11A16EF
:104BB000F040A22F232F342F4427585FF3CF469580
:104BC00037952795A795F0405395C9F77EF41F16A2
:104BD000BA0B620B730B840BBAF09150A1F0FF0F6C
:104BE000BB1F661F771F881FC2F70EC0BA0F621F58
:104BF000731F841F48F4879577956795B795F79548
:104C00009E3F08F0B0CF9395880F08F09927EE0FDC
:104C10009795879508950E94EE2608F481E00895FF
:104C20000E9424260C9429270E94222758F00E94D3
:104C30001B2740F029F45F3F29F00C9412275111F3
:104C40000C945D270C9418270E943A2768F3992347
:104C5000B1F3552391F3951B550BBB27AA27621778
:104C60007307840738F09F5F5F4F220F331F441F85
:104C7000AA1FA9F335D00E2E3AF0E0E832D09150B9
:104C80005040E695001CCAF72BD0FE2F29D0660FA6
:104C9000771F881FBB1F261737074807AB07B0E8E9
:104CA00009F0BB0B802DBF01FF2793585F4F3AF0EF
:104CB0009E3F510578F00C9412270C945D275F3FBE
:104CC000E4F3983ED4F3869577956795B795F79575
:104CD0009F5FC9F7880F911D9695879597F908955D
:104CE000E1E0660F771F881FBB1F621773078407F9
:104CF000BA0720F0621B730B840BBA0BEE1F88F708
:104D0000E09508950E94422788F09F5798F0B92FA8
:104D10009927B751B0F0E1F0660F771F881F991FF0
:104D20001AF0BA95C9F714C0B13091F00E945C270F
:104D3000B1E008950C945C27672F782F8827B85F1F
:104D400039F0B93FCCF3869577956795B395D9F748
:104D50003EF490958095709561957F4F8F4F9F4F52
:104D60000895E89409C097FB3EF49095809570955E
:104D700061957F4F8F4F9F4F9923A9F0F92F96E9A7
:104D8000BB279395F695879577956795B795F1111C
:104D9000F8CFFAF4BB0F11F460FF1BC06F5F7F4FB9
:104DA0008F4F9F4F16C0882311F096E911C07723CB
:104DB00021F09EE8872F762F05C0662371F096E8D4
:104DC000862F70E060E02AF09A95660F771F881FA3
:104DD000DAF7880F9695879597F90895990F000847
:104DE000550FAA0BE0E8FEEF16161706E807F907BD
:104DF000C0F012161306E407F50798F0621B730B58
:104E0000840B950B39F40A2661F0232B242B252BD8
:104E100021F408950A2609F4A140A6958FEF811D7B
:104E2000811D089597F99F6780E870E060E008951C
:104E30009FEF80EC089500240A94161617061806B2
:104E40000906089500240A9412161306140605068E
:104E50000895092E0394000C11F4882352F0BB0F1F
:104E600040F4BF2B11F460FF04C06F5F7F4F8F4F82
:104E70009F4F089557FD9058440F551F59F05F3FBD
:104E800071F04795880F97FB991F61F09F3F79F06C
:104E900087950895121613061406551FF2CF4695EE
:104EA000F1DF08C0161617061806991FF1CF869570
:104EB0007105610508940895E894BB276627772754
:104EC000CB0197F908950E94EE2608F48FEF08951C
:104ED0000E947B270C9429270E941B2738F00E94F0
:104EE000222720F0952311F00C9412270C941827F8
:104EF00011240C945D270E943A2770F3959FC1F30B
:104F0000950F50E0551F629FF001729FBB27F00D77
:104F1000B11D639FAA27F00DB11DAA1F649F6627CC
:104F2000B00DA11D661F829F2227B00DA11D621F1B
:104F3000739FB00DA11D621F839FA00D611D221FD5
:104F4000749F3327A00D611D231F849F600D211DB9
:104F5000822F762F6A2F11249F5750409AF0F1F03C
:104F600088234AF0EE0FFF1FBB1F661F771F881FA5
:104F700091505040A9F79E3F510580F00C941227A4
:104F80000C945D275F3FE4F3983ED4F386957795C4
:104F90006795B795F795E7959F5FC1F7FE2B880F4B
:104FA000911D9695879597F90895FA01EE0FFF1FC9
:104FB000309621053105A1F16115710561F4803844
:104FC000BFE39B0749F168949038810561F0803810
:104FD000BFEF9B0741F099234AF5FF3FE1053105FB
:104FE000210519F1E8940894E795D901AA2329F439
:104FF000AB2FBE2FF85FD0F310C0FF5F70F4A69503
:10500000E0F7F73950F019F0FF3A38F49F779F93A3
:105010000DD00F9007FC9058089546F00C94182777
:1050200060E070E080E89FE308954FE79F775F932B
:105030004F933F932F930E94D5282F913F914F91EB
:105040005F910E9468270C9432280E94EE26880BFC
:10505000990B089529F416F00C9412270C945C27F0
:105060000C9418270E944227A8F39638A0F707F857
:105070000F92E8942BE33AEA48EB5FE70E947E2721
:105080000F920F920F924DB75EB70F920E941D299B
:10509000E8E6F0E00E9464284F915F91EF91FF9164
:1050A000E595EE1FFF1F49F0FE57E0684427EE0F1D
:1050B000441FFA95E1F74195550B0E9497280F90F0
:1050C00007FE0C948B280895DF93CF931F930F93C3
:1050D000FF92EF92DF927B018C01689406C0DA2E7A
:1050E000EF010E947B27FE01E894A591259135915F
:1050F00045915591A6F3EF010E94B625FE01970157
:10510000A801DA9469F7DF90EF90FF900F911F915B
:10511000CF91DF9108959B01AC0160E070E080E8E1
:105120009FE30C9410260C9412270C9451290E9492
:105130004227D8F39923C9F3940F511DA3F391503B
:10514000504094F059F0882332F0660F771F881F83
:1051500091505040C1F79E3F51052CF7880F911D8B
:105160009695879597F908955F3FACF0983E9CF02F
:10517000BB27869577956795B79508F4B1609395A9
:10518000C1F7BB0F58F711F460FFE8CF6F5F7F4F97
:105190008F4F9F4FE3CF0C945D2716F00C9451294D
:1051A0000C94182768940C9412270E944227A8F3A5
:1051B0009923C1F3AEF3DF93CF931F930F93FF9225
:1051C000C92FDD2788232AF02197660F771F881FB4
:1051D000DAF720E030E040E85FEB9FE3883920F029
:1051E000803E38F021968F770E949F25E0E9F0E01D
:1051F00004C00E949F25EDEBF0E00E9464288B0123
:10520000BE01EC01FB2E6F5771097595771F880B56
:10521000990B0E94B32628E132E741E35FE30E9445
:105220007B27AF2D9801AE01FF900F911F91CF9179
:10523000DF910E94B6250C942927FA01DC01AA0F00
:10524000BB1F9B01AC01BF5728F4222733274427FB
:10525000507820C0B75190F4AB2F00244695379575
:105260002795011CA395D2F3002071F0220F331F64
:10527000441FB395DAF30ED00C949E25613071056E
:10528000A0E88A07B94630F49B01AC01662777276E
:1052900088279078309621F020833183428353838E
:1052A00008959F3F31F0915020F487957795679549
:1052B000B795880F911D9695879597F90895EE0FEC
:1052C000FF1F0590F491E02D09940F931F93CF9346
:1052D000DF938230910510F482E090E0E091980332
:1052E000F091990330E020E0B0E0A0E0309799F42D
:1052F0002115310509F44AC0281B390B243031052A
:10530000D8F58A819B816115710589F1FB01938331
:105310008283FE0111C040815181028113814817AF
:105320005907E0F04817590799F4109761F0129661
:105330000C93129713961C933296CF01DF91CF9165
:105340001F910F9108950093980310939903F4CF40
:105350002115310551F04217530738F0A901DB013F
:105360009A01BD01DF01F801C1CFEF01F9CF9093A0
:10537000990380939803CDCFFE01E20FF31F819331
:1053800091932250310939832883D7CF20919603F6
:1053900030919703232B41F420910A0130910B01A6
:1053A00030939703209396032091080130910901CF
:1053B0002115310541F42DB73EB740910C015091B4
:1053C0000D01241B350BE0919603F0919703E21732
:1053D000F307A0F42E1B3F0B2817390778F0AC0118
:1053E0004E5F5F4F2417350748F04E0F5F1F5093F5
:1053F000970340939603819391939FCFF0E0E0E071
:105400009CCFCF93DF930097E9F0FC013297138292
:105410001282A0919803B0919903ED0130E020E051
:105420001097A1F420813181820F931F2091960360
:10543000309197032817390709F061C0F09397035B
:10544000E0939603DF91CF910895EA01CE17DF072D
:10545000E8F54A815B819E0141155105B1F7E901EB
:10546000FB83EA8349915991C40FD51FEC17FD07BF
:1054700061F4808191810296840F951FE9019983DF
:105480008883828193819B838A83F0E0E0E0129697
:105490008D919C9113970097B9F52D913C9111979F
:1054A000CD010296820F931F2091960330919703AE
:1054B0002817390739F6309751F510929903109251
:1054C0009803B0939703A0939603BCCFD383C28372
:1054D00040815181840F951FC817D90761F44E5F31
:1054E0005F4F88819981480F591F518340838A817A
:1054F0009B81938382832115310509F0B0CFF0930E
:105500009903E09398039ECFFD01DC01C0CF138285
:105510001282D7CF81E090E0F8940C94962ADC01B7
:1055200001C06D9341505040E0F7089518E0CEE57A
:10553000D8E004C0FE010E945F292196CF35D10733
:06554000C9F7F894FFCF4B
:10554600AB0AAB0A0100000000009A038000AED54A
:1055560080A83FD30040AD8BA1C8DA1281FFD91FC6
:10556600DB4033A62010A4000000004C0BAC0AD987
:105576000A990B0A0BE80AFC0A00000000F317C69A
:105586001722189308BF17AC179D17000000005983
:105596000FAC0A221825130F0C9308FE11D611F230
:1055A60011E611781293081F0D42169D1164111F02
:1055B6001102118A102B10D01A00000000590FACEE
:1055C6000A221825130F0C9308FE11D611F211E6C4
:1055D60011781293081F0D42169D1164111F1102B6
:1055E600118A102B104916251854180D0A006E61E1
:0C55F6006E00696E66006F7666002E0085
:00000001FF
